{
  "_format": "hh-sol-artifact-1",
  "contractName": "PayChain",
  "sourceName": "contracts/PayChain.sol",
  "abi": [
    {
      "anonymous": false,
      "inputs": [
        {
          "indexed": true,
          "internalType": "address",
          "name": "sender",
          "type": "address"
        },
        {
          "indexed": true,
          "internalType": "address",
          "name": "receiver",
          "type": "address"
        },
        {
          "indexed": false,
          "internalType": "uint256",
          "name": "amount",
          "type": "uint256"
        },
        {
          "indexed": false,
          "internalType": "string",
          "name": "message",
          "type": "string"
        },
        {
          "indexed": false,
          "internalType": "uint256",
          "name": "timestamp",
          "type": "uint256"
        },
        {
          "indexed": false,
          "internalType": "string",
          "name": "keyword",
          "type": "string"
        }
      ],
      "name": "TransactionAdded",
      "type": "event"
    },
    {
      "inputs": [],
      "name": "getAllTransactions",
      "outputs": [
        {
          "components": [
            {
              "internalType": "address",
              "name": "sender",
              "type": "address"
            },
            {
              "internalType": "address",
              "name": "receiver",
              "type": "address"
            },
            {
              "internalType": "uint256",
              "name": "amount",
              "type": "uint256"
            },
            {
              "internalType": "string",
              "name": "message",
              "type": "string"
            },
            {
              "internalType": "uint256",
              "name": "timestamp",
              "type": "uint256"
            },
            {
              "internalType": "string",
              "name": "keyword",
              "type": "string"
            }
          ],
          "internalType": "struct PayChain.Transaction[]",
          "name": "",
          "type": "tuple[]"
        }
      ],
      "stateMutability": "view",
      "type": "function"
    },
    {
      "inputs": [],
      "name": "getTransactionCount",
      "outputs": [
        {
          "internalType": "uint256",
          "name": "",
          "type": "uint256"
        }
      ],
      "stateMutability": "view",
      "type": "function"
    },
    {
      "inputs": [
        {
          "internalType": "address payable",
          "name": "receiver",
          "type": "address"
        },
        {
          "internalType": "string",
          "name": "message",
          "type": "string"
        },
        {
          "internalType": "string",
          "name": "keyword",
          "type": "string"
        }
      ],
      "name": "sendPayment",
      "outputs": [],
      "stateMutability": "payable",
      "type": "function"
    }
  ],
  "bytecode": "0x6080604052348015600f57600080fd5b506111598061001f6000396000f3fe6080604052600436106100345760003560e01c806327506f53146100395780632e7700f014610064578063f5e78b9f1461008f575b600080fd5b34801561004557600080fd5b5061004e6100ab565b60405161005b91906108dd565b60405180910390f35b34801561007057600080fd5b506100796102ee565b604051610086919061090e565b60405180910390f35b6100a960048036038101906100a49190610ab0565b6102f8565b005b60606000805480602002602001604051908101604052809291908181526020016000905b828210156102e557838290600052602060002090600602016040518060c00160405290816000820160009054906101000a900473ffffffffffffffffffffffffffffffffffffffff1673ffffffffffffffffffffffffffffffffffffffff1673ffffffffffffffffffffffffffffffffffffffff1681526020016001820160009054906101000a900473ffffffffffffffffffffffffffffffffffffffff1673ffffffffffffffffffffffffffffffffffffffff1673ffffffffffffffffffffffffffffffffffffffff168152602001600282015481526020016003820180546101b890610b6a565b80601f01602080910402602001604051908101604052809291908181526020018280546101e490610b6a565b80156102315780601f1061020657610100808354040283529160200191610231565b820191906000526020600020905b81548152906001019060200180831161021457829003601f168201915b505050505081526020016004820154815260200160058201805461025490610b6a565b80601f016020809104026020016040519081016040528092919081815260200182805461028090610b6a565b80156102cd5780601f106102a2576101008083540402835291602001916102cd565b820191906000526020600020905b8154815290600101906020018083116102b057829003601f168201915b505050505081525050815260200190600101906100cf565b50505050905090565b6000600154905090565b6000341161033b576040517f08c379a000000000000000000000000000000000000000000000000000000000815260040161033290610bf8565b60405180910390fd5b600073ffffffffffffffffffffffffffffffffffffffff168373ffffffffffffffffffffffffffffffffffffffff16036103aa576040517f08c379a00000000000000000000000000000000000000000000000000000000081526004016103a190610c64565b60405180910390fd5b3373ffffffffffffffffffffffffffffffffffffffff168373ffffffffffffffffffffffffffffffffffffffff1603610418576040517f08c379a000000000000000000000000000000000000000000000000000000000815260040161040f90610cd0565b60405180910390fd5b6001600081548092919061042b90610d1f565b919050555060006040518060c001604052803373ffffffffffffffffffffffffffffffffffffffff1681526020018573ffffffffffffffffffffffffffffffffffffffff16815260200134815260200184815260200142815260200183815250908060018154018082558091505060019003906000526020600020906006020160009091909190915060008201518160000160006101000a81548173ffffffffffffffffffffffffffffffffffffffff021916908373ffffffffffffffffffffffffffffffffffffffff16021790555060208201518160010160006101000a81548173ffffffffffffffffffffffffffffffffffffffff021916908373ffffffffffffffffffffffffffffffffffffffff1602179055506040820151816002015560608201518160030190816105619190610f13565b506080820151816004015560a08201518160050190816105819190610f13565b50505060008373ffffffffffffffffffffffffffffffffffffffff16346040516105aa90611016565b60006040518083038185875af1925050503d80600081146105e7576040519150601f19603f3d011682016040523d82523d6000602084013e6105ec565b606091505b5050905080610630576040517f08c379a000000000000000000000000000000000000000000000000000000000815260040161062790611077565b60405180910390fd5b8373ffffffffffffffffffffffffffffffffffffffff163373ffffffffffffffffffffffffffffffffffffffff167f33dbcdd3036be0bf3fc29e44421c4e6eea61e4839c80ab81fcce1fbeb97d94573486428760405161069394939291906110d0565b60405180910390a350505050565b600081519050919050565b600082825260208201905092915050565b6000819050602082019050919050565b600073ffffffffffffffffffffffffffffffffffffffff82169050919050565b60006106f8826106cd565b9050919050565b610708816106ed565b82525050565b6000819050919050565b6107218161070e565b82525050565b600081519050919050565b600082825260208201905092915050565b60005b83811015610761578082015181840152602081019050610746565b60008484015250505050565b6000601f19601f8301169050919050565b600061078982610727565b6107938185610732565b93506107a3818560208601610743565b6107ac8161076d565b840191505092915050565b600060c0830160008301516107cf60008601826106ff565b5060208301516107e260208601826106ff565b5060408301516107f56040860182610718565b506060830151848203606086015261080d828261077e565b91505060808301516108226080860182610718565b5060a083015184820360a086015261083a828261077e565b9150508091505092915050565b600061085383836107b7565b905092915050565b6000602082019050919050565b6000610873826106a1565b61087d81856106ac565b93508360208202850161088f856106bd565b8060005b858110156108cb57848403895281516108ac8582610847565b94506108b78361085b565b925060208a01995050600181019050610893565b50829750879550505050505092915050565b600060208201905081810360008301526108f78184610868565b905092915050565b6109088161070e565b82525050565b600060208201905061092360008301846108ff565b92915050565b6000604051905090565b600080fd5b600080fd5b6000610948826106cd565b9050919050565b6109588161093d565b811461096357600080fd5b50565b6000813590506109758161094f565b92915050565b600080fd5b600080fd5b7f4e487b7100000000000000000000000000000000000000000000000000000000600052604160045260246000fd5b6109bd8261076d565b810181811067ffffffffffffffff821117156109dc576109db610985565b5b80604052505050565b60006109ef610929565b90506109fb82826109b4565b919050565b600067ffffffffffffffff821115610a1b57610a1a610985565b5b610a248261076d565b9050602081019050919050565b82818337600083830152505050565b6000610a53610a4e84610a00565b6109e5565b905082815260208101848484011115610a6f57610a6e610980565b5b610a7a848285610a31565b509392505050565b600082601f830112610a9757610a9661097b565b5b8135610aa7848260208601610a40565b91505092915050565b600080600060608486031215610ac957610ac8610933565b5b6000610ad786828701610966565b935050602084013567ffffffffffffffff811115610af857610af7610938565b5b610b0486828701610a82565b925050604084013567ffffffffffffffff811115610b2557610b24610938565b5b610b3186828701610a82565b9150509250925092565b7f4e487b7100000000000000000000000000000000000000000000000000000000600052602260045260246000fd5b60006002820490506001821680610b8257607f821691505b602082108103610b9557610b94610b3b565b5b50919050565b600082825260208201905092915050565b7f416d6f756e74206d7573742062652067726561746572207468616e2030000000600082015250565b6000610be2601d83610b9b565b9150610bed82610bac565b602082019050919050565b60006020820190508181036000830152610c1181610bd5565b9050919050565b7f496e76616c696420726563656976657220616464726573730000000000000000600082015250565b6000610c4e601883610b9b565b9150610c5982610c18565b602082019050919050565b60006020820190508181036000830152610c7d81610c41565b9050919050565b7f43616e6e6f742073656e6420746f20796f757273656c66000000000000000000600082015250565b6000610cba601783610b9b565b9150610cc582610c84565b602082019050919050565b60006020820190508181036000830152610ce981610cad565b9050919050565b7f4e487b7100000000000000000000000000000000000000000000000000000000600052601160045260246000fd5b6000610d2a8261070e565b91507fffffffffffffffffffffffffffffffffffffffffffffffffffffffffffffffff8203610d5c57610d5b610cf0565b5b600182019050919050565b60008190508160005260206000209050919050565b60006020601f8301049050919050565b600082821b905092915050565b600060088302610dc97fffffffffffffffffffffffffffffffffffffffffffffffffffffffffffffffff82610d8c565b610dd38683610d8c565b95508019841693508086168417925050509392505050565b6000819050919050565b6000610e10610e0b610e068461070e565b610deb565b61070e565b9050919050565b6000819050919050565b610e2a83610df5565b610e3e610e3682610e17565b848454610d99565b825550505050565b600090565b610e53610e46565b610e5e818484610e21565b505050565b5b81811015610e8257610e77600082610e4b565b600181019050610e64565b5050565b601f821115610ec757610e9881610d67565b610ea184610d7c565b81016020851015610eb0578190505b610ec4610ebc85610d7c565b830182610e63565b50505b505050565b600082821c905092915050565b6000610eea60001984600802610ecc565b1980831691505092915050565b6000610f038383610ed9565b9150826002028217905092915050565b610f1c82610727565b67ffffffffffffffff811115610f3557610f34610985565b5b610f3f8254610b6a565b610f4a828285610e86565b600060209050601f831160018114610f7d5760008415610f6b578287015190505b610f758582610ef7565b865550610fdd565b601f198416610f8b86610d67565b60005b82811015610fb357848901518255600182019150602085019450602081019050610f8e565b86831015610fd05784890151610fcc601f891682610ed9565b8355505b6001600288020188555050505b505050505050565b600081905092915050565b50565b6000611000600083610fe5565b915061100b82610ff0565b600082019050919050565b600061102182610ff3565b9150819050919050565b7f5472616e73666572206661696c65640000000000000000000000000000000000600082015250565b6000611061600f83610b9b565b915061106c8261102b565b602082019050919050565b6000602082019050818103600083015261109081611054565b9050919050565b60006110a282610727565b6110ac8185610b9b565b93506110bc818560208601610743565b6110c58161076d565b840191505092915050565b60006080820190506110e560008301876108ff565b81810360208301526110f78186611097565b905061110660408301856108ff565b81810360608301526111188184611097565b90509594505050505056fea2646970667358221220bc4a63647f28dd916eddf02b60d500ebc93f91ed6f2ec6c8c316ce1fb056dd1b64736f6c634300081c0033",
  "linkReferences": {},
  "deployedLinkReferences": {}
}